{
  "contractName": "Dex",
  "abi": [
    {
      "anonymous": false,
      "inputs": [
        {
          "indexed": true,
          "internalType": "address",
          "name": "previousOwner",
          "type": "address"
        },
        {
          "indexed": true,
          "internalType": "address",
          "name": "newOwner",
          "type": "address"
        }
      ],
      "name": "OwnershipTransferred",
      "type": "event"
    },
    {
      "inputs": [
        {
          "internalType": "bytes32",
          "name": "ticker",
          "type": "bytes32"
        },
        {
          "internalType": "address",
          "name": "tokenAddress",
          "type": "address"
        }
      ],
      "name": "addToken",
      "outputs": [],
      "stateMutability": "nonpayable",
      "type": "function"
    },
    {
      "inputs": [
        {
          "internalType": "address",
          "name": "",
          "type": "address"
        },
        {
          "internalType": "bytes32",
          "name": "",
          "type": "bytes32"
        }
      ],
      "name": "balances",
      "outputs": [
        {
          "internalType": "uint256",
          "name": "",
          "type": "uint256"
        }
      ],
      "stateMutability": "view",
      "type": "function",
      "constant": true
    },
    {
      "inputs": [
        {
          "internalType": "uint256",
          "name": "amount",
          "type": "uint256"
        },
        {
          "internalType": "bytes32",
          "name": "ticker",
          "type": "bytes32"
        }
      ],
      "name": "deposit",
      "outputs": [],
      "stateMutability": "nonpayable",
      "type": "function"
    },
    {
      "inputs": [
        {
          "internalType": "bytes32",
          "name": "",
          "type": "bytes32"
        },
        {
          "internalType": "uint256",
          "name": "",
          "type": "uint256"
        },
        {
          "internalType": "uint256",
          "name": "",
          "type": "uint256"
        }
      ],
      "name": "orderBook",
      "outputs": [
        {
          "internalType": "uint256",
          "name": "id",
          "type": "uint256"
        },
        {
          "internalType": "address",
          "name": "trader",
          "type": "address"
        },
        {
          "internalType": "bool",
          "name": "buyOrder",
          "type": "bool"
        },
        {
          "internalType": "bytes32",
          "name": "ticker",
          "type": "bytes32"
        },
        {
          "internalType": "uint256",
          "name": "amount",
          "type": "uint256"
        },
        {
          "internalType": "uint256",
          "name": "price",
          "type": "uint256"
        }
      ],
      "stateMutability": "view",
      "type": "function",
      "constant": true
    },
    {
      "inputs": [],
      "name": "owner",
      "outputs": [
        {
          "internalType": "address",
          "name": "",
          "type": "address"
        }
      ],
      "stateMutability": "view",
      "type": "function",
      "constant": true
    },
    {
      "inputs": [],
      "name": "renounceOwnership",
      "outputs": [],
      "stateMutability": "nonpayable",
      "type": "function"
    },
    {
      "inputs": [
        {
          "internalType": "uint256",
          "name": "",
          "type": "uint256"
        }
      ],
      "name": "tokenList",
      "outputs": [
        {
          "internalType": "bytes32",
          "name": "",
          "type": "bytes32"
        }
      ],
      "stateMutability": "view",
      "type": "function",
      "constant": true
    },
    {
      "inputs": [
        {
          "internalType": "bytes32",
          "name": "",
          "type": "bytes32"
        }
      ],
      "name": "tokenMapping",
      "outputs": [
        {
          "internalType": "bytes32",
          "name": "ticker",
          "type": "bytes32"
        },
        {
          "internalType": "address",
          "name": "tokenAddress",
          "type": "address"
        }
      ],
      "stateMutability": "view",
      "type": "function",
      "constant": true
    },
    {
      "inputs": [
        {
          "internalType": "address",
          "name": "newOwner",
          "type": "address"
        }
      ],
      "name": "transferOwnership",
      "outputs": [],
      "stateMutability": "nonpayable",
      "type": "function"
    },
    {
      "inputs": [
        {
          "internalType": "uint256",
          "name": "amount",
          "type": "uint256"
        },
        {
          "internalType": "bytes32",
          "name": "ticker",
          "type": "bytes32"
        }
      ],
      "name": "withdraw",
      "outputs": [],
      "stateMutability": "nonpayable",
      "type": "function"
    },
    {
      "inputs": [
        {
          "internalType": "bytes32",
          "name": "ticker",
          "type": "bytes32"
        },
        {
          "internalType": "enum Dex.Side",
          "name": "side",
          "type": "uint8"
        }
      ],
      "name": "getOrderBook",
      "outputs": [
        {
          "components": [
            {
              "internalType": "uint256",
              "name": "id",
              "type": "uint256"
            },
            {
              "internalType": "address",
              "name": "trader",
              "type": "address"
            },
            {
              "internalType": "bool",
              "name": "buyOrder",
              "type": "bool"
            },
            {
              "internalType": "bytes32",
              "name": "ticker",
              "type": "bytes32"
            },
            {
              "internalType": "uint256",
              "name": "amount",
              "type": "uint256"
            },
            {
              "internalType": "uint256",
              "name": "price",
              "type": "uint256"
            }
          ],
          "internalType": "struct Dex.Order[]",
          "name": "",
          "type": "tuple[]"
        }
      ],
      "stateMutability": "view",
      "type": "function",
      "constant": true
    }
  ],
  "bytecode": "0x608060405234801561001057600080fd5b5060006100216100c460201b60201c565b9050806000806101000a81548173ffffffffffffffffffffffffffffffffffffffff021916908373ffffffffffffffffffffffffffffffffffffffff1602179055508073ffffffffffffffffffffffffffffffffffffffff16600073ffffffffffffffffffffffffffffffffffffffff167f8be0079c531659141344cd1fd0a4f28419497f9722a3daafe3b4186f6b6457e060405160405180910390a3506100cc565b600033905090565b611616806100db6000396000f3fe608060405234801561001057600080fd5b50600436106100a95760003560e01c80639776aacf116100715780639776aacf1461016c5780639ead722214610188578063a8d2021a146101b8578063ba58ea68146101d4578063c9630cb014610204578063f2fde38b14610220576100a9565b80630bb431b6146100ae5780631f14df69146100e3578063667cb4ba14610113578063715018a6146101445780638da5cb5b1461014e575b600080fd5b6100c860048036038101906100c39190610f3b565b61023c565b6040516100da9695949392919061131d565b60405180910390f35b6100fd60048036038101906100f89190610e35565b6102cf565b60405161010a9190611302565b60405180910390f35b61012d60048036038101906101289190610e9a565b6102f4565b60405161013b929190611279565b60405180910390f35b61014c610338565b005b610156610472565b60405161016391906111c1565b60405180910390f35b61018660048036038101906101819190610ec3565b61049b565b005b6101a2600480360381019061019d9190610f8a565b6105d6565b6040516101af919061125e565b60405180910390f35b6101d260048036038101906101cd9190610fb3565b6105fa565b005b6101ee60048036038101906101e99190610eff565b61087e565b6040516101fb919061123c565b60405180910390f35b61021e60048036038101906102199190610fb3565b6109d3565b005b61023a60048036038101906102359190610e0c565b610bc6565b005b6004602052826000526040600020602052816000526040600020818154811061026457600080fd5b906000526020600020906005020160009250925050508060000154908060010160009054906101000a900473ffffffffffffffffffffffffffffffffffffffff16908060010160149054906101000a900460ff16908060020154908060030154908060040154905086565b6003602052816000526040600020602052806000526040600020600091509150505481565b60016020528060005260406000206000915090508060000154908060010160009054906101000a900473ffffffffffffffffffffffffffffffffffffffff16905082565b610340610d6f565b73ffffffffffffffffffffffffffffffffffffffff1661035e610472565b73ffffffffffffffffffffffffffffffffffffffff16146103b4576040517f08c379a00000000000000000000000000000000000000000000000000000000081526004016103ab906112c2565b60405180910390fd5b600073ffffffffffffffffffffffffffffffffffffffff1660008054906101000a900473ffffffffffffffffffffffffffffffffffffffff1673ffffffffffffffffffffffffffffffffffffffff167f8be0079c531659141344cd1fd0a4f28419497f9722a3daafe3b4186f6b6457e060405160405180910390a360008060006101000a81548173ffffffffffffffffffffffffffffffffffffffff021916908373ffffffffffffffffffffffffffffffffffffffff160217905550565b60008060009054906101000a900473ffffffffffffffffffffffffffffffffffffffff16905090565b6104a3610d6f565b73ffffffffffffffffffffffffffffffffffffffff166104c1610472565b73ffffffffffffffffffffffffffffffffffffffff1614610517576040517f08c379a000000000000000000000000000000000000000000000000000000000815260040161050e906112c2565b60405180910390fd5b60405180604001604052808381526020018273ffffffffffffffffffffffffffffffffffffffff16815250600160008481526020019081526020016000206000820151816000015560208201518160010160006101000a81548173ffffffffffffffffffffffffffffffffffffffff021916908373ffffffffffffffffffffffffffffffffffffffff16021790555090505060028290806001815401808255809150506001900390600052602060002001600090919091909150555050565b600281815481106105e657600080fd5b906000526020600020016000915090505481565b80600073ffffffffffffffffffffffffffffffffffffffff166001600083815260200190815260200160002060010160009054906101000a900473ffffffffffffffffffffffffffffffffffffffff1673ffffffffffffffffffffffffffffffffffffffff16141561066b57600080fd5b82600360003373ffffffffffffffffffffffffffffffffffffffff1673ffffffffffffffffffffffffffffffffffffffff16815260200190815260200160002060008481526020019081526020016000205410156106fe576040517f08c379a00000000000000000000000000000000000000000000000000000000081526004016106f5906112e2565b60405180910390fd5b61076183600360003373ffffffffffffffffffffffffffffffffffffffff1673ffffffffffffffffffffffffffffffffffffffff168152602001908152602001600020600085815260200190815260200160002054610d7790919063ffffffff16565b600360003373ffffffffffffffffffffffffffffffffffffffff1673ffffffffffffffffffffffffffffffffffffffff1681526020019081526020016000206000848152602001908152602001600020819055506001600083815260200190815260200160002060010160009054906101000a900473ffffffffffffffffffffffffffffffffffffffff1673ffffffffffffffffffffffffffffffffffffffff1663a9059cbb33856040518363ffffffff1660e01b8152600401610826929190611213565b602060405180830381600087803b15801561084057600080fd5b505af1158015610854573d6000803e3d6000fd5b505050506040513d601f19601f820116820180604052508101906108789190610e71565b50505050565b60606004600084815260200190815260200160002060008360018111156108ce577f4e487b7100000000000000000000000000000000000000000000000000000000600052602160045260246000fd5b8152602001908152602001600020805480602002602001604051908101604052809291908181526020016000905b828210156109c757838290600052602060002090600502016040518060c0016040529081600082015481526020016001820160009054906101000a900473ffffffffffffffffffffffffffffffffffffffff1673ffffffffffffffffffffffffffffffffffffffff1673ffffffffffffffffffffffffffffffffffffffff1681526020016001820160149054906101000a900460ff161515151581526020016002820154815260200160038201548152602001600482015481525050815260200190600101906108fc565b50505050905092915050565b80600073ffffffffffffffffffffffffffffffffffffffff166001600083815260200190815260200160002060010160009054906101000a900473ffffffffffffffffffffffffffffffffffffffff1673ffffffffffffffffffffffffffffffffffffffff161415610a4457600080fd5b6001600083815260200190815260200160002060010160009054906101000a900473ffffffffffffffffffffffffffffffffffffffff1673ffffffffffffffffffffffffffffffffffffffff166323b872dd3330866040518463ffffffff1660e01b8152600401610ab7939291906111dc565b602060405180830381600087803b158015610ad157600080fd5b505af1158015610ae5573d6000803e3d6000fd5b505050506040513d601f19601f82011682018060405250810190610b099190610e71565b50610b6d83600360003373ffffffffffffffffffffffffffffffffffffffff1673ffffffffffffffffffffffffffffffffffffffff168152602001908152602001600020600085815260200190815260200160002054610d8d90919063ffffffff16565b600360003373ffffffffffffffffffffffffffffffffffffffff1673ffffffffffffffffffffffffffffffffffffffff168152602001908152602001600020600084815260200190815260200160002081905550505050565b610bce610d6f565b73ffffffffffffffffffffffffffffffffffffffff16610bec610472565b73ffffffffffffffffffffffffffffffffffffffff1614610c42576040517f08c379a0000000000000000000000000000000000000000000000000000000008152600401610c39906112c2565b60405180910390fd5b600073ffffffffffffffffffffffffffffffffffffffff168173ffffffffffffffffffffffffffffffffffffffff161415610cb2576040517f08c379a0000000000000000000000000000000000000000000000000000000008152600401610ca9906112a2565b60405180910390fd5b8073ffffffffffffffffffffffffffffffffffffffff1660008054906101000a900473ffffffffffffffffffffffffffffffffffffffff1673ffffffffffffffffffffffffffffffffffffffff167f8be0079c531659141344cd1fd0a4f28419497f9722a3daafe3b4186f6b6457e060405160405180910390a3806000806101000a81548173ffffffffffffffffffffffffffffffffffffffff021916908373ffffffffffffffffffffffffffffffffffffffff16021790555050565b600033905090565b60008183610d85919061141e565b905092915050565b60008183610d9b91906113c8565b905092915050565b600081359050610db281611574565b92915050565b600081519050610dc78161158b565b92915050565b600081359050610ddc816115a2565b92915050565b600081359050610df1816115b9565b92915050565b600081359050610e06816115c9565b92915050565b600060208284031215610e1e57600080fd5b6000610e2c84828501610da3565b91505092915050565b60008060408385031215610e4857600080fd5b6000610e5685828601610da3565b9250506020610e6785828601610dcd565b9150509250929050565b600060208284031215610e8357600080fd5b6000610e9184828501610db8565b91505092915050565b600060208284031215610eac57600080fd5b6000610eba84828501610dcd565b91505092915050565b60008060408385031215610ed657600080fd5b6000610ee485828601610dcd565b9250506020610ef585828601610da3565b9150509250929050565b60008060408385031215610f1257600080fd5b6000610f2085828601610dcd565b9250506020610f3185828601610de2565b9150509250929050565b600080600060608486031215610f5057600080fd5b6000610f5e86828701610dcd565b9350506020610f6f86828701610df7565b9250506040610f8086828701610df7565b9150509250925092565b600060208284031215610f9c57600080fd5b6000610faa84828501610df7565b91505092915050565b60008060408385031215610fc657600080fd5b6000610fd485828601610df7565b9250506020610fe585828601610dcd565b9150509250929050565b6000610ffb8383611128565b60c08301905092915050565b61101081611452565b82525050565b61101f81611452565b82525050565b60006110308261138e565b61103a81856113a6565b93506110458361137e565b8060005b8381101561107657815161105d8882610fef565b975061106883611399565b925050600181019050611049565b5085935050505092915050565b61108c81611464565b82525050565b61109b81611464565b82525050565b6110aa81611470565b82525050565b6110b981611470565b82525050565b60006110cc6026836113b7565b91506110d7826114d3565b604082019050919050565b60006110ef6020836113b7565b91506110fa82611522565b602082019050919050565b60006111126016836113b7565b915061111d8261154b565b602082019050919050565b60c08201600082015161113e60008501826111a3565b5060208201516111516020850182611007565b5060408201516111646040850182611083565b50606082015161117760608501826110a1565b50608082015161118a60808501826111a3565b5060a082015161119d60a08501826111a3565b50505050565b6111ac8161149a565b82525050565b6111bb8161149a565b82525050565b60006020820190506111d66000830184611016565b92915050565b60006060820190506111f16000830186611016565b6111fe6020830185611016565b61120b60408301846111b2565b949350505050565b60006040820190506112286000830185611016565b61123560208301846111b2565b9392505050565b600060208201905081810360008301526112568184611025565b905092915050565b600060208201905061127360008301846110b0565b92915050565b600060408201905061128e60008301856110b0565b61129b6020830184611016565b9392505050565b600060208201905081810360008301526112bb816110bf565b9050919050565b600060208201905081810360008301526112db816110e2565b9050919050565b600060208201905081810360008301526112fb81611105565b9050919050565b600060208201905061131760008301846111b2565b92915050565b600060c08201905061133260008301896111b2565b61133f6020830188611016565b61134c6040830187611092565b61135960608301866110b0565b61136660808301856111b2565b61137360a08301846111b2565b979650505050505050565b6000819050602082019050919050565b600081519050919050565b6000602082019050919050565b600082825260208201905092915050565b600082825260208201905092915050565b60006113d38261149a565b91506113de8361149a565b9250827fffffffffffffffffffffffffffffffffffffffffffffffffffffffffffffffff03821115611413576114126114a4565b5b828201905092915050565b60006114298261149a565b91506114348361149a565b925082821015611447576114466114a4565b5b828203905092915050565b600061145d8261147a565b9050919050565b60008115159050919050565b6000819050919050565b600073ffffffffffffffffffffffffffffffffffffffff82169050919050565b6000819050919050565b7f4e487b7100000000000000000000000000000000000000000000000000000000600052601160045260246000fd5b7f4f776e61626c653a206e6577206f776e657220697320746865207a65726f206160008201527f6464726573730000000000000000000000000000000000000000000000000000602082015250565b7f4f776e61626c653a2063616c6c6572206973206e6f7420746865206f776e6572600082015250565b7f42616c616e6365206e6f742073756666696369656e7400000000000000000000600082015250565b61157d81611452565b811461158857600080fd5b50565b61159481611464565b811461159f57600080fd5b50565b6115ab81611470565b81146115b657600080fd5b50565b600281106115c657600080fd5b50565b6115d28161149a565b81146115dd57600080fd5b5056fea264697066735822122084ef8f786e0bbde6b9fc5d796ce56cf74ffac91d8c765ebb4e442d3c64f03e2964736f6c63430008030033",
  "immutableReferences": {},
  "source": "//SPDX-License-Identifier: MIT\npragma solidity ^0.8.0;\npragma experimental ABIEncoderV2;\n\nimport \"./wallet.sol\";\n\ncontract Dex is Wallet {\n\n    enum Side {\n        BUY,\n        SELL\n    }\n\n    struct Order {\n        uint id;\n        address trader;\n        bool buyOrder;\n        bytes32 ticker;\n        uint amount;\n        uint price;\n    }\n\n    mapping(bytes32 => mapping(uint => Order[])) public orderBook;\n\n    function getOrderBook(bytes32 ticker, Side side) view public returns (Order[] memory){\n    return orderBook[ticker][uint(side)];\n\n    }\n\n  //  function createLimitOrder() public {\n\n  //}\n\n\n}\n",
  "sourcePath": "/Users/jakegoode/Desktop/Ethereum-201/DEX/contracts/dex.sol",
  "compiler": {
    "name": "solc",
    "version": "0.8.3+commit.8d00100c.Emscripten.clang"
  },
  "schemaVersion": "3.3.4",
  "updatedAt": "2021-04-20T16:27:40.711Z",
  "networkType": "ethereum",
  "devdoc": {
    "kind": "dev",
    "methods": {
      "owner()": {
        "details": "Returns the address of the current owner."
      },
      "renounceOwnership()": {
        "details": "Leaves the contract without owner. It will not be possible to call `onlyOwner` functions anymore. Can only be called by the current owner. NOTE: Renouncing ownership will leave the contract without an owner, thereby removing any functionality that is only available to the owner."
      },
      "transferOwnership(address)": {
        "details": "Transfers ownership of the contract to a new account (`newOwner`). Can only be called by the current owner."
      }
    },
    "version": 1
  },
  "userdoc": {
    "kind": "user",
    "methods": {},
    "version": 1
  }
}