{
  "contractName": "Dex",
  "abi": [
    {
      "anonymous": false,
      "inputs": [
        {
          "indexed": true,
          "internalType": "address",
          "name": "previousOwner",
          "type": "address"
        },
        {
          "indexed": true,
          "internalType": "address",
          "name": "newOwner",
          "type": "address"
        }
      ],
      "name": "OwnershipTransferred",
      "type": "event"
    },
    {
      "inputs": [
        {
          "internalType": "bytes32",
          "name": "ticker",
          "type": "bytes32"
        },
        {
          "internalType": "address",
          "name": "tokenAddress",
          "type": "address"
        }
      ],
      "name": "addToken",
      "outputs": [],
      "stateMutability": "nonpayable",
      "type": "function"
    },
    {
      "inputs": [
        {
          "internalType": "address",
          "name": "",
          "type": "address"
        },
        {
          "internalType": "bytes32",
          "name": "",
          "type": "bytes32"
        }
      ],
      "name": "balances",
      "outputs": [
        {
          "internalType": "uint256",
          "name": "",
          "type": "uint256"
        }
      ],
      "stateMutability": "view",
      "type": "function"
    },
    {
      "inputs": [
        {
          "internalType": "uint256",
          "name": "amount",
          "type": "uint256"
        },
        {
          "internalType": "bytes32",
          "name": "ticker",
          "type": "bytes32"
        }
      ],
      "name": "deposit",
      "outputs": [],
      "stateMutability": "nonpayable",
      "type": "function"
    },
    {
      "inputs": [],
      "name": "nextOrderId",
      "outputs": [
        {
          "internalType": "uint256",
          "name": "",
          "type": "uint256"
        }
      ],
      "stateMutability": "view",
      "type": "function"
    },
    {
      "inputs": [
        {
          "internalType": "bytes32",
          "name": "",
          "type": "bytes32"
        },
        {
          "internalType": "uint256",
          "name": "",
          "type": "uint256"
        },
        {
          "internalType": "uint256",
          "name": "",
          "type": "uint256"
        }
      ],
      "name": "orderBook",
      "outputs": [
        {
          "internalType": "uint256",
          "name": "id",
          "type": "uint256"
        },
        {
          "internalType": "address",
          "name": "trader",
          "type": "address"
        },
        {
          "internalType": "enum Dex.Side",
          "name": "side",
          "type": "uint8"
        },
        {
          "internalType": "bytes32",
          "name": "ticker",
          "type": "bytes32"
        },
        {
          "internalType": "uint256",
          "name": "amount",
          "type": "uint256"
        },
        {
          "internalType": "uint256",
          "name": "price",
          "type": "uint256"
        }
      ],
      "stateMutability": "view",
      "type": "function"
    },
    {
      "inputs": [],
      "name": "owner",
      "outputs": [
        {
          "internalType": "address",
          "name": "",
          "type": "address"
        }
      ],
      "stateMutability": "view",
      "type": "function"
    },
    {
      "inputs": [],
      "name": "renounceOwnership",
      "outputs": [],
      "stateMutability": "nonpayable",
      "type": "function"
    },
    {
      "inputs": [
        {
          "internalType": "uint256",
          "name": "",
          "type": "uint256"
        }
      ],
      "name": "tokenList",
      "outputs": [
        {
          "internalType": "bytes32",
          "name": "",
          "type": "bytes32"
        }
      ],
      "stateMutability": "view",
      "type": "function"
    },
    {
      "inputs": [
        {
          "internalType": "bytes32",
          "name": "",
          "type": "bytes32"
        }
      ],
      "name": "tokenMapping",
      "outputs": [
        {
          "internalType": "bytes32",
          "name": "ticker",
          "type": "bytes32"
        },
        {
          "internalType": "address",
          "name": "tokenAddress",
          "type": "address"
        }
      ],
      "stateMutability": "view",
      "type": "function"
    },
    {
      "inputs": [
        {
          "internalType": "address",
          "name": "newOwner",
          "type": "address"
        }
      ],
      "name": "transferOwnership",
      "outputs": [],
      "stateMutability": "nonpayable",
      "type": "function"
    },
    {
      "inputs": [
        {
          "internalType": "uint256",
          "name": "amount",
          "type": "uint256"
        },
        {
          "internalType": "bytes32",
          "name": "ticker",
          "type": "bytes32"
        }
      ],
      "name": "withdraw",
      "outputs": [],
      "stateMutability": "nonpayable",
      "type": "function"
    },
    {
      "inputs": [
        {
          "internalType": "bytes32",
          "name": "ticker",
          "type": "bytes32"
        },
        {
          "internalType": "enum Dex.Side",
          "name": "side",
          "type": "uint8"
        }
      ],
      "name": "getOrderBook",
      "outputs": [
        {
          "components": [
            {
              "internalType": "uint256",
              "name": "id",
              "type": "uint256"
            },
            {
              "internalType": "address",
              "name": "trader",
              "type": "address"
            },
            {
              "internalType": "enum Dex.Side",
              "name": "side",
              "type": "uint8"
            },
            {
              "internalType": "bytes32",
              "name": "ticker",
              "type": "bytes32"
            },
            {
              "internalType": "uint256",
              "name": "amount",
              "type": "uint256"
            },
            {
              "internalType": "uint256",
              "name": "price",
              "type": "uint256"
            }
          ],
          "internalType": "struct Dex.Order[]",
          "name": "",
          "type": "tuple[]"
        }
      ],
      "stateMutability": "view",
      "type": "function"
    },
    {
      "inputs": [],
      "name": "depositEth",
      "outputs": [],
      "stateMutability": "payable",
      "type": "function"
    },
    {
      "inputs": [
        {
          "internalType": "enum Dex.Side",
          "name": "side",
          "type": "uint8"
        },
        {
          "internalType": "bytes32",
          "name": "ticker",
          "type": "bytes32"
        },
        {
          "internalType": "uint256",
          "name": "amount",
          "type": "uint256"
        },
        {
          "internalType": "uint256",
          "name": "price",
          "type": "uint256"
        }
      ],
      "name": "createLimitOrder",
      "outputs": [],
      "stateMutability": "nonpayable",
      "type": "function"
    },
    {
      "inputs": [
        {
          "internalType": "enum Dex.Side",
          "name": "side",
          "type": "uint8"
        },
        {
          "internalType": "bytes32",
          "name": "ticker",
          "type": "bytes32"
        },
        {
          "internalType": "uint256",
          "name": "amount",
          "type": "uint256"
        }
      ],
      "name": "createMarketOrder",
      "outputs": [],
      "stateMutability": "nonpayable",
      "type": "function"
    }
  ],
  "bytecode": "0x6080604052600060045534801561001557600080fd5b5060006100266100c960201b60201c565b9050806000806101000a81548173ffffffffffffffffffffffffffffffffffffffff021916908373ffffffffffffffffffffffffffffffffffffffff1602179055508073ffffffffffffffffffffffffffffffffffffffff16600073ffffffffffffffffffffffffffffffffffffffff167f8be0079c531659141344cd1fd0a4f28419497f9722a3daafe3b4186f6b6457e060405160405180910390a3506100d1565b600033905090565b612b6780620000e16000396000f3fe6080604052600436106100e85760003560e01c80638da5cb5b1161008a578063a8d2021a11610059578063a8d2021a146102d9578063ba58ea6814610302578063c9630cb01461033f578063f2fde38b14610368576100e8565b80638da5cb5b1461021f5780639776aacf1461024a57806399ec2f1c146102735780639ead72221461029c576100e8565b8063439370b1116100c6578063439370b114610197578063667cb4ba146101a15780636f3b62f9146101df578063715018a614610208576100e8565b80630bb431b6146100ed5780631f14df691461012f5780632a58b3301461016c575b600080fd5b3480156100f957600080fd5b50610114600480360381019061010f91906121cd565b610391565b604051610126969594939291906126e7565b60405180910390f35b34801561013b57600080fd5b50610156600480360381019061015191906120c7565b610424565b60405161016391906126cc565b60405180910390f35b34801561017857600080fd5b50610181610449565b60405161018e91906126cc565b60405180910390f35b61019f61044f565b005b3480156101ad57600080fd5b506101c860048036038101906101c3919061212c565b610548565b6040516101d6929190612603565b60405180910390f35b3480156101eb57600080fd5b506102066004803603810190610201919061226b565b61058c565b005b34801561021457600080fd5b5061021d611456565b005b34801561022b57600080fd5b50610234611590565b604051610241919061254b565b60405180910390f35b34801561025657600080fd5b50610271600480360381019061026c9190612155565b6115b9565b005b34801561027f57600080fd5b5061029a6004803603810190610295919061221c565b6116f4565b005b3480156102a857600080fd5b506102c360048036038101906102be91906122ce565b6116f9565b6040516102d091906125e8565b60405180910390f35b3480156102e557600080fd5b5061030060048036038101906102fb91906122f7565b61171d565b005b34801561030e57600080fd5b5061032960048036038101906103249190612191565b6119a1565b60405161033691906125c6565b60405180910390f35b34801561034b57600080fd5b50610366600480360381019061036191906122f7565b611b62565b005b34801561037457600080fd5b5061038f600480360381019061038a919061209e565b611e42565b005b600560205282600052604060002060205281600052604060002081815481106103b957600080fd5b906000526020600020906005020160009250925050508060000154908060010160009054906101000a900473ffffffffffffffffffffffffffffffffffffffff16908060010160149054906101000a900460ff16908060020154908060030154908060040154905086565b6003602052816000526040600020602052806000526040600020600091509150505481565b60045481565b6104d234600360003373ffffffffffffffffffffffffffffffffffffffff1673ffffffffffffffffffffffffffffffffffffffff16815260200190815260200160002060007f4554480000000000000000000000000000000000000000000000000000000000815260200190815260200160002054611feb90919063ffffffff16565b600360003373ffffffffffffffffffffffffffffffffffffffff1673ffffffffffffffffffffffffffffffffffffffff16815260200190815260200160002060007f4554480000000000000000000000000000000000000000000000000000000000815260200190815260200160002081905550565b60016020528060005260406000206000915090508060000154908060010160009054906101000a900473ffffffffffffffffffffffffffffffffffffffff16905082565b600060018111156105c6577f4e487b7100000000000000000000000000000000000000000000000000000000600052602160045260246000fd5b8460018111156105ff577f4e487b7100000000000000000000000000000000000000000000000000000000600052602160045260246000fd5b14156106cf57610618818361200190919063ffffffff16565b600360003373ffffffffffffffffffffffffffffffffffffffff1673ffffffffffffffffffffffffffffffffffffffff16815260200190815260200160002060007f455448000000000000000000000000000000000000000000000000000000000081526020019081526020016000205410156106ca576040517f08c379a00000000000000000000000000000000000000000000000000000000081526004016106c1906126ac565b60405180910390fd5b6107a6565b600180811115610708577f4e487b7100000000000000000000000000000000000000000000000000000000600052602160045260246000fd5b846001811115610741577f4e487b7100000000000000000000000000000000000000000000000000000000600052602160045260246000fd5b14156107a55781600360003373ffffffffffffffffffffffffffffffffffffffff1673ffffffffffffffffffffffffffffffffffffffff16815260200190815260200160002060008581526020019081526020016000205410156107a457600080fd5b5b5b60006005600085815260200190815260200160002060008660018111156107f6577f4e487b7100000000000000000000000000000000000000000000000000000000600052602160045260246000fd5b81526020019081526020016000209050806040518060c0016040528060045481526020013373ffffffffffffffffffffffffffffffffffffffff16815260200187600181111561086f577f4e487b7100000000000000000000000000000000000000000000000000000000600052602160045260246000fd5b81526020018681526020018581526020018481525090806001815401808255809150506001900390600052602060002090600502016000909190919091506000820151816000015560208201518160010160006101000a81548173ffffffffffffffffffffffffffffffffffffffff021916908373ffffffffffffffffffffffffffffffffffffffff16021790555060408201518160010160146101000a81548160ff0219169083600181111561094f577f4e487b7100000000000000000000000000000000000000000000000000000000600052602160045260246000fd5b0217905550606082015181600201556080820151816003015560a08201518160040155505060008082805490501161098857600061099a565b600182805490506109999190612842565b5b9050600060018111156109d6577f4e487b7100000000000000000000000000000000000000000000000000000000600052602160045260246000fd5b866001811115610a0f577f4e487b7100000000000000000000000000000000000000000000000000000000600052602160045260246000fd5b1415610eeb575b6000811115610ee657818181548110610a58577f4e487b7100000000000000000000000000000000000000000000000000000000600052603260045260246000fd5b90600052602060002090600502016004015482600183610a789190612842565b81548110610aaf577f4e487b7100000000000000000000000000000000000000000000000000000000600052603260045260246000fd5b9060005260206000209060050201600401541115610acc57610ee6565b600082600183610adc9190612842565b81548110610b13577f4e487b7100000000000000000000000000000000000000000000000000000000600052603260045260246000fd5b90600052602060002090600502016040518060c0016040529081600082015481526020016001820160009054906101000a900473ffffffffffffffffffffffffffffffffffffffff1673ffffffffffffffffffffffffffffffffffffffff1673ffffffffffffffffffffffffffffffffffffffff1681526020016001820160149054906101000a900460ff166001811115610bd7577f4e487b7100000000000000000000000000000000000000000000000000000000600052602160045260246000fd5b6001811115610c0f577f4e487b7100000000000000000000000000000000000000000000000000000000600052602160045260246000fd5b815260200160028201548152602001600382015481526020016004820154815250509050828281548110610c6c577f4e487b7100000000000000000000000000000000000000000000000000000000600052603260045260246000fd5b906000526020600020906005020183600184610c889190612842565b81548110610cbf577f4e487b7100000000000000000000000000000000000000000000000000000000600052603260045260246000fd5b9060005260206000209060050201600082015481600001556001820160009054906101000a900473ffffffffffffffffffffffffffffffffffffffff168160010160006101000a81548173ffffffffffffffffffffffffffffffffffffffff021916908373ffffffffffffffffffffffffffffffffffffffff1602179055506001820160149054906101000a900460ff168160010160146101000a81548160ff02191690836001811115610d9c577f4e487b7100000000000000000000000000000000000000000000000000000000600052602160045260246000fd5b021790555060028201548160020155600382015481600301556004820154816004015590505080838381548110610dfc577f4e487b7100000000000000000000000000000000000000000000000000000000600052603260045260246000fd5b90600052602060002090600502016000820151816000015560208201518160010160006101000a81548173ffffffffffffffffffffffffffffffffffffffff021916908373ffffffffffffffffffffffffffffffffffffffff16021790555060408201518160010160146101000a81548160ff02191690836001811115610eac577f4e487b7100000000000000000000000000000000000000000000000000000000600052602160045260246000fd5b0217905550606082015181600201556080820151816003015560a082015181600401559050508180610edd906128ed565b92505050610a16565b611436565b600180811115610f24577f4e487b7100000000000000000000000000000000000000000000000000000000600052602160045260246000fd5b866001811115610f5d577f4e487b7100000000000000000000000000000000000000000000000000000000600052602160045260246000fd5b1415611435575b600081111561143457818181548110610fa6577f4e487b7100000000000000000000000000000000000000000000000000000000600052603260045260246000fd5b90600052602060002090600502016004015482600183610fc69190612842565b81548110610ffd577f4e487b7100000000000000000000000000000000000000000000000000000000600052603260045260246000fd5b906000526020600020906005020160040154101561101a57611434565b60008260018361102a9190612842565b81548110611061577f4e487b7100000000000000000000000000000000000000000000000000000000600052603260045260246000fd5b90600052602060002090600502016040518060c0016040529081600082015481526020016001820160009054906101000a900473ffffffffffffffffffffffffffffffffffffffff1673ffffffffffffffffffffffffffffffffffffffff1673ffffffffffffffffffffffffffffffffffffffff1681526020016001820160149054906101000a900460ff166001811115611125577f4e487b7100000000000000000000000000000000000000000000000000000000600052602160045260246000fd5b600181111561115d577f4e487b7100000000000000000000000000000000000000000000000000000000600052602160045260246000fd5b8152602001600282015481526020016003820154815260200160048201548152505090508282815481106111ba577f4e487b7100000000000000000000000000000000000000000000000000000000600052603260045260246000fd5b9060005260206000209060050201836001846111d69190612842565b8154811061120d577f4e487b7100000000000000000000000000000000000000000000000000000000600052603260045260246000fd5b9060005260206000209060050201600082015481600001556001820160009054906101000a900473ffffffffffffffffffffffffffffffffffffffff168160010160006101000a81548173ffffffffffffffffffffffffffffffffffffffff021916908373ffffffffffffffffffffffffffffffffffffffff1602179055506001820160149054906101000a900460ff168160010160146101000a81548160ff021916908360018111156112ea577f4e487b7100000000000000000000000000000000000000000000000000000000600052602160045260246000fd5b02179055506002820154816002015560038201548160030155600482015481600401559050508083838154811061134a577f4e487b7100000000000000000000000000000000000000000000000000000000600052603260045260246000fd5b90600052602060002090600502016000820151816000015560208201518160010160006101000a81548173ffffffffffffffffffffffffffffffffffffffff021916908373ffffffffffffffffffffffffffffffffffffffff16021790555060408201518160010160146101000a81548160ff021916908360018111156113fa577f4e487b7100000000000000000000000000000000000000000000000000000000600052602160045260246000fd5b0217905550606082015181600201556080820151816003015560a08201518160040155905050818061142b906128ed565b92505050610f64565b5b5b6004600081548092919061144990612917565b9190505550505050505050565b61145e612017565b73ffffffffffffffffffffffffffffffffffffffff1661147c611590565b73ffffffffffffffffffffffffffffffffffffffff16146114d2576040517f08c379a00000000000000000000000000000000000000000000000000000000081526004016114c99061264c565b60405180910390fd5b600073ffffffffffffffffffffffffffffffffffffffff1660008054906101000a900473ffffffffffffffffffffffffffffffffffffffff1673ffffffffffffffffffffffffffffffffffffffff167f8be0079c531659141344cd1fd0a4f28419497f9722a3daafe3b4186f6b6457e060405160405180910390a360008060006101000a81548173ffffffffffffffffffffffffffffffffffffffff021916908373ffffffffffffffffffffffffffffffffffffffff160217905550565b60008060009054906101000a900473ffffffffffffffffffffffffffffffffffffffff16905090565b6115c1612017565b73ffffffffffffffffffffffffffffffffffffffff166115df611590565b73ffffffffffffffffffffffffffffffffffffffff1614611635576040517f08c379a000000000000000000000000000000000000000000000000000000000815260040161162c9061264c565b60405180910390fd5b60405180604001604052808381526020018273ffffffffffffffffffffffffffffffffffffffff16815250600160008481526020019081526020016000206000820151816000015560208201518160010160006101000a81548173ffffffffffffffffffffffffffffffffffffffff021916908373ffffffffffffffffffffffffffffffffffffffff16021790555090505060028290806001815401808255809150506001900390600052602060002001600090919091909150555050565b505050565b6002818154811061170957600080fd5b906000526020600020016000915090505481565b80600073ffffffffffffffffffffffffffffffffffffffff166001600083815260200190815260200160002060010160009054906101000a900473ffffffffffffffffffffffffffffffffffffffff1673ffffffffffffffffffffffffffffffffffffffff16141561178e57600080fd5b82600360003373ffffffffffffffffffffffffffffffffffffffff1673ffffffffffffffffffffffffffffffffffffffff1681526020019081526020016000206000848152602001908152602001600020541015611821576040517f08c379a00000000000000000000000000000000000000000000000000000000081526004016118189061268c565b60405180910390fd5b6001600083815260200190815260200160002060010160009054906101000a900473ffffffffffffffffffffffffffffffffffffffff1673ffffffffffffffffffffffffffffffffffffffff1663a9059cbb33856040518363ffffffff1660e01b815260040161189292919061259d565b602060405180830381600087803b1580156118ac57600080fd5b505af11580156118c0573d6000803e3d6000fd5b505050506040513d601f19601f820116820180604052508101906118e49190612103565b5061194883600360003373ffffffffffffffffffffffffffffffffffffffff1673ffffffffffffffffffffffffffffffffffffffff16815260200190815260200160002060008581526020019081526020016000205461201f90919063ffffffff16565b600360003373ffffffffffffffffffffffffffffffffffffffff1673ffffffffffffffffffffffffffffffffffffffff168152602001908152602001600020600084815260200190815260200160002081905550505050565b60606005600084815260200190815260200160002060008360018111156119f1577f4e487b7100000000000000000000000000000000000000000000000000000000600052602160045260246000fd5b8152602001908152602001600020805480602002602001604051908101604052809291908181526020016000905b82821015611b5657838290600052602060002090600502016040518060c0016040529081600082015481526020016001820160009054906101000a900473ffffffffffffffffffffffffffffffffffffffff1673ffffffffffffffffffffffffffffffffffffffff1673ffffffffffffffffffffffffffffffffffffffff1681526020016001820160149054906101000a900460ff166001811115611aed577f4e487b7100000000000000000000000000000000000000000000000000000000600052602160045260246000fd5b6001811115611b25577f4e487b7100000000000000000000000000000000000000000000000000000000600052602160045260246000fd5b8152602001600282015481526020016003820154815260200160048201548152505081526020019060010190611a1f565b50505050905092915050565b80600073ffffffffffffffffffffffffffffffffffffffff166001600083815260200190815260200160002060010160009054906101000a900473ffffffffffffffffffffffffffffffffffffffff1673ffffffffffffffffffffffffffffffffffffffff161415611bd357600080fd5b600360003373ffffffffffffffffffffffffffffffffffffffff1673ffffffffffffffffffffffffffffffffffffffff16815260200190815260200160002060008381526020019081526020016000205483600360003373ffffffffffffffffffffffffffffffffffffffff1673ffffffffffffffffffffffffffffffffffffffff168152602001908152602001600020600085815260200190815260200160002054611c809190612792565b11611cc0576040517f08c379a0000000000000000000000000000000000000000000000000000000008152600401611cb79061266c565b60405180910390fd5b6001600083815260200190815260200160002060010160009054906101000a900473ffffffffffffffffffffffffffffffffffffffff1673ffffffffffffffffffffffffffffffffffffffff166323b872dd3330866040518463ffffffff1660e01b8152600401611d3393929190612566565b602060405180830381600087803b158015611d4d57600080fd5b505af1158015611d61573d6000803e3d6000fd5b505050506040513d601f19601f82011682018060405250810190611d859190612103565b50611de983600360003373ffffffffffffffffffffffffffffffffffffffff1673ffffffffffffffffffffffffffffffffffffffff168152602001908152602001600020600085815260200190815260200160002054611feb90919063ffffffff16565b600360003373ffffffffffffffffffffffffffffffffffffffff1673ffffffffffffffffffffffffffffffffffffffff168152602001908152602001600020600084815260200190815260200160002081905550505050565b611e4a612017565b73ffffffffffffffffffffffffffffffffffffffff16611e68611590565b73ffffffffffffffffffffffffffffffffffffffff1614611ebe576040517f08c379a0000000000000000000000000000000000000000000000000000000008152600401611eb59061264c565b60405180910390fd5b600073ffffffffffffffffffffffffffffffffffffffff168173ffffffffffffffffffffffffffffffffffffffff161415611f2e576040517f08c379a0000000000000000000000000000000000000000000000000000000008152600401611f259061262c565b60405180910390fd5b8073ffffffffffffffffffffffffffffffffffffffff1660008054906101000a900473ffffffffffffffffffffffffffffffffffffffff1673ffffffffffffffffffffffffffffffffffffffff167f8be0079c531659141344cd1fd0a4f28419497f9722a3daafe3b4186f6b6457e060405160405180910390a3806000806101000a81548173ffffffffffffffffffffffffffffffffffffffff021916908373ffffffffffffffffffffffffffffffffffffffff16021790555050565b60008183611ff99190612792565b905092915050565b6000818361200f91906127e8565b905092915050565b600033905090565b6000818361202d9190612842565b905092915050565b60008135905061204481612ac5565b92915050565b60008151905061205981612adc565b92915050565b60008135905061206e81612af3565b92915050565b60008135905061208381612b0a565b92915050565b60008135905061209881612b1a565b92915050565b6000602082840312156120b057600080fd5b60006120be84828501612035565b91505092915050565b600080604083850312156120da57600080fd5b60006120e885828601612035565b92505060206120f98582860161205f565b9150509250929050565b60006020828403121561211557600080fd5b60006121238482850161204a565b91505092915050565b60006020828403121561213e57600080fd5b600061214c8482850161205f565b91505092915050565b6000806040838503121561216857600080fd5b60006121768582860161205f565b925050602061218785828601612035565b9150509250929050565b600080604083850312156121a457600080fd5b60006121b28582860161205f565b92505060206121c385828601612074565b9150509250929050565b6000806000606084860312156121e257600080fd5b60006121f08682870161205f565b935050602061220186828701612089565b925050604061221286828701612089565b9150509250925092565b60008060006060848603121561223157600080fd5b600061223f86828701612074565b93505060206122508682870161205f565b925050604061226186828701612089565b9150509250925092565b6000806000806080858703121561228157600080fd5b600061228f87828801612074565b94505060206122a08782880161205f565b93505060406122b187828801612089565b92505060606122c287828801612089565b91505092959194509250565b6000602082840312156122e057600080fd5b60006122ee84828501612089565b91505092915050565b6000806040838503121561230a57600080fd5b600061231885828601612089565b92505060206123298582860161205f565b9150509250929050565b600061233f83836124b2565b60c08301905092915050565b61235481612876565b82525050565b61236381612876565b82525050565b600061237482612758565b61237e8185612770565b935061238983612748565b8060005b838110156123ba5781516123a18882612333565b97506123ac83612763565b92505060018101905061238d565b5085935050505092915050565b6123d081612894565b82525050565b6123df81612894565b82525050565b6123ee816128db565b82525050565b6123fd816128db565b82525050565b6000612410602683612781565b915061241b826129be565b604082019050919050565b6000612433602083612781565b915061243e82612a0d565b602082019050919050565b6000612456600583612781565b915061246182612a36565b602082019050919050565b6000612479601683612781565b915061248482612a5f565b602082019050919050565b600061249c601d83612781565b91506124a782612a88565b602082019050919050565b60c0820160008201516124c8600085018261252d565b5060208201516124db602085018261234b565b5060408201516124ee60408501826123e5565b50606082015161250160608501826123c7565b506080820151612514608085018261252d565b5060a082015161252760a085018261252d565b50505050565b612536816128d1565b82525050565b612545816128d1565b82525050565b6000602082019050612560600083018461235a565b92915050565b600060608201905061257b600083018661235a565b612588602083018561235a565b612595604083018461253c565b949350505050565b60006040820190506125b2600083018561235a565b6125bf602083018461253c565b9392505050565b600060208201905081810360008301526125e08184612369565b905092915050565b60006020820190506125fd60008301846123d6565b92915050565b600060408201905061261860008301856123d6565b612625602083018461235a565b9392505050565b6000602082019050818103600083015261264581612403565b9050919050565b6000602082019050818103600083015261266581612426565b9050919050565b6000602082019050818103600083015261268581612449565b9050919050565b600060208201905081810360008301526126a58161246c565b9050919050565b600060208201905081810360008301526126c58161248f565b9050919050565b60006020820190506126e1600083018461253c565b92915050565b600060c0820190506126fc600083018961253c565b612709602083018861235a565b61271660408301876123f4565b61272360608301866123d6565b612730608083018561253c565b61273d60a083018461253c565b979650505050505050565b6000819050602082019050919050565b600081519050919050565b6000602082019050919050565b600082825260208201905092915050565b600082825260208201905092915050565b600061279d826128d1565b91506127a8836128d1565b9250827fffffffffffffffffffffffffffffffffffffffffffffffffffffffffffffffff038211156127dd576127dc612960565b5b828201905092915050565b60006127f3826128d1565b91506127fe836128d1565b9250817fffffffffffffffffffffffffffffffffffffffffffffffffffffffffffffffff048311821515161561283757612836612960565b5b828202905092915050565b600061284d826128d1565b9150612858836128d1565b92508282101561286b5761286a612960565b5b828203905092915050565b6000612881826128b1565b9050919050565b60008115159050919050565b6000819050919050565b60008190506128ac82612ab1565b919050565b600073ffffffffffffffffffffffffffffffffffffffff82169050919050565b6000819050919050565b60006128e68261289e565b9050919050565b60006128f8826128d1565b9150600082141561290c5761290b612960565b5b600182039050919050565b6000612922826128d1565b91507fffffffffffffffffffffffffffffffffffffffffffffffffffffffffffffffff82141561295557612954612960565b5b600182019050919050565b7f4e487b7100000000000000000000000000000000000000000000000000000000600052601160045260246000fd5b7f4e487b7100000000000000000000000000000000000000000000000000000000600052602160045260246000fd5b7f4f776e61626c653a206e6577206f776e657220697320746865207a65726f206160008201527f6464726573730000000000000000000000000000000000000000000000000000602082015250565b7f4f776e61626c653a2063616c6c6572206973206e6f7420746865206f776e6572600082015250565b7f6973737565000000000000000000000000000000000000000000000000000000600082015250565b7f42616c616e6365206e6f742073756666696369656e7400000000000000000000600082015250565b7f4554482062616c616e6365206973206e6f742073756666696369656e74000000600082015250565b60028110612ac257612ac161298f565b5b50565b612ace81612876565b8114612ad957600080fd5b50565b612ae581612888565b8114612af057600080fd5b50565b612afc81612894565b8114612b0757600080fd5b50565b60028110612b1757600080fd5b50565b612b23816128d1565b8114612b2e57600080fd5b5056fea264697066735822122044b94034188fe2638f318c0a926052b73abcea4a0ccb8da9bd7f4221cffe120564736f6c63430008040033",
  "immutableReferences": {},
  "source": "//SPDX-License-Identifier: MIT\npragma solidity ^0.8.0;\npragma experimental ABIEncoderV2;\n\nimport \"./wallet.sol\";\n\n\ncontract Dex is Wallet {\n\n    using SafeMath for uint256;\n\n    enum Side {\n        BUY, // 0\n        SELL // 1\n    }\n// order that will be in the order book\n    struct Order {\n        uint id;\n        address trader;\n        Side side;\n        bytes32 ticker;\n        uint amount;\n        uint price;\n    }\n\n    uint public nextOrderId = 0;\n\n    mapping(bytes32 => mapping(uint => Order[])) public orderBook;\n\n    function getOrderBook(bytes32 ticker, Side side) view public returns (Order[] memory){\n        return orderBook[ticker][uint(side)];\n\n        }\n    function depositEth() payable external{\n        balances[msg.sender][bytes32(\"ETH\")] = balances[msg.sender][bytes32(\"ETH\")].add(msg.value);   \n        \n        }\n\n    function createLimitOrder(Side side,bytes32 ticker,uint amount,uint price) public {\n         if(side == Side.BUY){\n        require(balances[msg.sender][\"ETH\"] >= amount.mul(price),\"ETH balance is not sufficient\");\n        } \n        else if(side == Side.SELL){\n        require(balances[msg.sender][ticker] >= amount);\n        }\n\n        Order[] storage orders = orderBook[ticker][uint(side)];\n        orders.push(\n            Order(nextOrderId,msg.sender, side, ticker, amount, price)\n         );\n\n        //Bubble sort\n        \n         uint i = orders.length > 0 ? orders.length - 1 : 0; //defines the start, if array is empty it equals 0, shortened if statement\n        if(side == Side.BUY){\n            while(i > 0){\n                if(orders[i - 1].price > orders[i].price) {\n                    break;\n                    // if everything is in order e.g [10,9,8] breaks loop\n                }\n                Order memory orderToMove = orders[i - 1];\n                orders[i - 1] = orders[i];\n                orders[i] = orderToMove;\n                i--;\n                // this swaps the orders so that they are in the correct order\n            }\n        }\n        // in this array smallest price needs to be to the left[9,5,2]\n        // could put these together to remove extra code\n        else if(side == Side.SELL){\n            while(i > 0){\n                if(orders[i - 1].price < orders[i].price) {\n                    break;   \n                }\n                Order memory orderToMove = orders[i - 1];\n                orders[i - 1] = orders[i];\n                orders[i] = orderToMove;\n                i--;\n            }\n        }\n        nextOrderId++;\n\n    }\n       function createMarketOrder(Side side,bytes32 ticker,uint amount) public{\n\n\n       }\n     \n}\n\n\n\n\n",
  "sourcePath": "/Users/jakegoode/Desktop/Ethereum-201/DEX/contracts/dex.sol",
  "compiler": {
    "name": "solc",
    "version": "0.8.4+commit.c7e474f2.Emscripten.clang"
  },
  "schemaVersion": "3.3.4",
  "updatedAt": "2021-04-28T14:14:22.378Z",
  "devdoc": {
    "kind": "dev",
    "methods": {
      "owner()": {
        "details": "Returns the address of the current owner."
      },
      "renounceOwnership()": {
        "details": "Leaves the contract without owner. It will not be possible to call `onlyOwner` functions anymore. Can only be called by the current owner. NOTE: Renouncing ownership will leave the contract without an owner, thereby removing any functionality that is only available to the owner."
      },
      "transferOwnership(address)": {
        "details": "Transfers ownership of the contract to a new account (`newOwner`). Can only be called by the current owner."
      }
    },
    "version": 1
  },
  "userdoc": {
    "kind": "user",
    "methods": {},
    "version": 1
  }
}