{
  "contractName": "Dex",
  "abi": [
    {
      "anonymous": false,
      "inputs": [
        {
          "indexed": true,
          "internalType": "address",
          "name": "previousOwner",
          "type": "address"
        },
        {
          "indexed": true,
          "internalType": "address",
          "name": "newOwner",
          "type": "address"
        }
      ],
      "name": "OwnershipTransferred",
      "type": "event"
    },
    {
      "inputs": [
        {
          "internalType": "bytes32",
          "name": "ticker",
          "type": "bytes32"
        },
        {
          "internalType": "address",
          "name": "tokenAddress",
          "type": "address"
        }
      ],
      "name": "addToken",
      "outputs": [],
      "stateMutability": "nonpayable",
      "type": "function"
    },
    {
      "inputs": [
        {
          "internalType": "address",
          "name": "",
          "type": "address"
        },
        {
          "internalType": "bytes32",
          "name": "",
          "type": "bytes32"
        }
      ],
      "name": "balances",
      "outputs": [
        {
          "internalType": "uint256",
          "name": "",
          "type": "uint256"
        }
      ],
      "stateMutability": "view",
      "type": "function",
      "constant": true
    },
    {
      "inputs": [
        {
          "internalType": "uint256",
          "name": "amount",
          "type": "uint256"
        },
        {
          "internalType": "bytes32",
          "name": "ticker",
          "type": "bytes32"
        }
      ],
      "name": "deposit",
      "outputs": [],
      "stateMutability": "nonpayable",
      "type": "function"
    },
    {
      "inputs": [],
      "name": "depositEth",
      "outputs": [],
      "stateMutability": "payable",
      "type": "function",
      "payable": true
    },
    {
      "inputs": [
        {
          "internalType": "bytes32",
          "name": "",
          "type": "bytes32"
        },
        {
          "internalType": "uint256",
          "name": "",
          "type": "uint256"
        },
        {
          "internalType": "uint256",
          "name": "",
          "type": "uint256"
        }
      ],
      "name": "orderBook",
      "outputs": [
        {
          "internalType": "uint256",
          "name": "id",
          "type": "uint256"
        },
        {
          "internalType": "address",
          "name": "trader",
          "type": "address"
        },
        {
          "internalType": "bytes32",
          "name": "ticker",
          "type": "bytes32"
        },
        {
          "internalType": "uint256",
          "name": "amount",
          "type": "uint256"
        },
        {
          "internalType": "uint256",
          "name": "price",
          "type": "uint256"
        }
      ],
      "stateMutability": "view",
      "type": "function",
      "constant": true
    },
    {
      "inputs": [],
      "name": "owner",
      "outputs": [
        {
          "internalType": "address",
          "name": "",
          "type": "address"
        }
      ],
      "stateMutability": "view",
      "type": "function",
      "constant": true
    },
    {
      "inputs": [],
      "name": "renounceOwnership",
      "outputs": [],
      "stateMutability": "nonpayable",
      "type": "function"
    },
    {
      "inputs": [
        {
          "internalType": "uint256",
          "name": "",
          "type": "uint256"
        }
      ],
      "name": "tokenList",
      "outputs": [
        {
          "internalType": "bytes32",
          "name": "",
          "type": "bytes32"
        }
      ],
      "stateMutability": "view",
      "type": "function",
      "constant": true
    },
    {
      "inputs": [
        {
          "internalType": "bytes32",
          "name": "",
          "type": "bytes32"
        }
      ],
      "name": "tokenMapping",
      "outputs": [
        {
          "internalType": "bytes32",
          "name": "ticker",
          "type": "bytes32"
        },
        {
          "internalType": "address",
          "name": "tokenAddress",
          "type": "address"
        }
      ],
      "stateMutability": "view",
      "type": "function",
      "constant": true
    },
    {
      "inputs": [
        {
          "internalType": "address",
          "name": "newOwner",
          "type": "address"
        }
      ],
      "name": "transferOwnership",
      "outputs": [],
      "stateMutability": "nonpayable",
      "type": "function"
    },
    {
      "inputs": [
        {
          "internalType": "uint256",
          "name": "amount",
          "type": "uint256"
        },
        {
          "internalType": "bytes32",
          "name": "ticker",
          "type": "bytes32"
        }
      ],
      "name": "withdraw",
      "outputs": [],
      "stateMutability": "nonpayable",
      "type": "function"
    },
    {
      "inputs": [
        {
          "internalType": "bytes32",
          "name": "ticker",
          "type": "bytes32"
        },
        {
          "internalType": "enum Dex.Side",
          "name": "side",
          "type": "uint8"
        }
      ],
      "name": "getOrderBook",
      "outputs": [
        {
          "components": [
            {
              "internalType": "uint256",
              "name": "id",
              "type": "uint256"
            },
            {
              "internalType": "address",
              "name": "trader",
              "type": "address"
            },
            {
              "internalType": "bytes32",
              "name": "ticker",
              "type": "bytes32"
            },
            {
              "internalType": "uint256",
              "name": "amount",
              "type": "uint256"
            },
            {
              "internalType": "uint256",
              "name": "price",
              "type": "uint256"
            }
          ],
          "internalType": "struct Dex.Order[]",
          "name": "",
          "type": "tuple[]"
        }
      ],
      "stateMutability": "view",
      "type": "function",
      "constant": true
    },
    {
      "inputs": [
        {
          "internalType": "enum Dex.Side",
          "name": "side",
          "type": "uint8"
        },
        {
          "internalType": "uint256",
          "name": "amount",
          "type": "uint256"
        },
        {
          "internalType": "uint256",
          "name": "price",
          "type": "uint256"
        }
      ],
      "name": "createLimitOrder",
      "outputs": [],
      "stateMutability": "view",
      "type": "function",
      "constant": true
    }
  ],
  "bytecode": "0x608060405234801561001057600080fd5b5060006100216100c460201b60201c565b9050806000806101000a81548173ffffffffffffffffffffffffffffffffffffffff021916908373ffffffffffffffffffffffffffffffffffffffff1602179055508073ffffffffffffffffffffffffffffffffffffffff16600073ffffffffffffffffffffffffffffffffffffffff167f8be0079c531659141344cd1fd0a4f28419497f9722a3daafe3b4186f6b6457e060405160405180910390a3506100cc565b600033905090565b611949806100db6000396000f3fe6080604052600436106100c25760003560e01c80639776aacf1161007f578063b5707de911610059578063b5707de91461025e578063ba58ea6814610287578063c9630cb0146102c4578063f2fde38b146102ed576100c2565b80639776aacf146101cf5780639ead7222146101f8578063a8d2021a14610235576100c2565b80630bb431b6146100c75780631f14df6914610108578063439370b114610145578063667cb4ba1461014f578063715018a61461018d5780638da5cb5b146101a4575b600080fd5b3480156100d357600080fd5b506100ee60048036038101906100e99190611204565b610316565b6040516100ff959493929190611604565b60405180910390f35b34801561011457600080fd5b5061012f600480360381019061012a91906110fe565b610396565b60405161013c91906115e9565b60405180910390f35b61014d6103bb565b005b34801561015b57600080fd5b5061017660048036038101906101719190611163565b6104b4565b604051610184929190611560565b60405180910390f35b34801561019957600080fd5b506101a26104f8565b005b3480156101b057600080fd5b506101b9610632565b6040516101c691906114a8565b60405180910390f35b3480156101db57600080fd5b506101f660048036038101906101f1919061118c565b61065b565b005b34801561020457600080fd5b5061021f600480360381019061021a91906112a2565b610796565b60405161022c9190611545565b60405180910390f35b34801561024157600080fd5b5061025c600480360381019061025791906112cb565b6107ba565b005b34801561026a57600080fd5b5061028560048036038101906102809190611253565b610a3e565b005b34801561029357600080fd5b506102ae60048036038101906102a991906111c8565b610b4c565b6040516102bb9190611523565b60405180910390f35b3480156102d057600080fd5b506102eb60048036038101906102e691906112cb565b610c86565b005b3480156102f957600080fd5b50610314600480360381019061030f91906110d5565b610e79565b005b6004602052826000526040600020602052816000526040600020818154811061033e57600080fd5b906000526020600020906005020160009250925050508060000154908060010160009054906101000a900473ffffffffffffffffffffffffffffffffffffffff16908060020154908060030154908060040154905085565b6003602052816000526040600020602052806000526040600020600091509150505481565b61043e34600360003373ffffffffffffffffffffffffffffffffffffffff1673ffffffffffffffffffffffffffffffffffffffff16815260200190815260200160002060007f455448000000000000000000000000000000000000000000000000000000000081526020019081526020016000205461102290919063ffffffff16565b600360003373ffffffffffffffffffffffffffffffffffffffff1673ffffffffffffffffffffffffffffffffffffffff16815260200190815260200160002060007f4554480000000000000000000000000000000000000000000000000000000000815260200190815260200160002081905550565b60016020528060005260406000206000915090508060000154908060010160009054906101000a900473ffffffffffffffffffffffffffffffffffffffff16905082565b610500611038565b73ffffffffffffffffffffffffffffffffffffffff1661051e610632565b73ffffffffffffffffffffffffffffffffffffffff1614610574576040517f08c379a000000000000000000000000000000000000000000000000000000000815260040161056b906115a9565b60405180910390fd5b600073ffffffffffffffffffffffffffffffffffffffff1660008054906101000a900473ffffffffffffffffffffffffffffffffffffffff1673ffffffffffffffffffffffffffffffffffffffff167f8be0079c531659141344cd1fd0a4f28419497f9722a3daafe3b4186f6b6457e060405160405180910390a360008060006101000a81548173ffffffffffffffffffffffffffffffffffffffff021916908373ffffffffffffffffffffffffffffffffffffffff160217905550565b60008060009054906101000a900473ffffffffffffffffffffffffffffffffffffffff16905090565b610663611038565b73ffffffffffffffffffffffffffffffffffffffff16610681610632565b73ffffffffffffffffffffffffffffffffffffffff16146106d7576040517f08c379a00000000000000000000000000000000000000000000000000000000081526004016106ce906115a9565b60405180910390fd5b60405180604001604052808381526020018273ffffffffffffffffffffffffffffffffffffffff16815250600160008481526020019081526020016000206000820151816000015560208201518160010160006101000a81548173ffffffffffffffffffffffffffffffffffffffff021916908373ffffffffffffffffffffffffffffffffffffffff16021790555090505060028290806001815401808255809150506001900390600052602060002001600090919091909150555050565b600281815481106107a657600080fd5b906000526020600020016000915090505481565b80600073ffffffffffffffffffffffffffffffffffffffff166001600083815260200190815260200160002060010160009054906101000a900473ffffffffffffffffffffffffffffffffffffffff1673ffffffffffffffffffffffffffffffffffffffff16141561082b57600080fd5b82600360003373ffffffffffffffffffffffffffffffffffffffff1673ffffffffffffffffffffffffffffffffffffffff16815260200190815260200160002060008481526020019081526020016000205410156108be576040517f08c379a00000000000000000000000000000000000000000000000000000000081526004016108b5906115c9565b60405180910390fd5b61092183600360003373ffffffffffffffffffffffffffffffffffffffff1673ffffffffffffffffffffffffffffffffffffffff16815260200190815260200160002060008581526020019081526020016000205461104090919063ffffffff16565b600360003373ffffffffffffffffffffffffffffffffffffffff1673ffffffffffffffffffffffffffffffffffffffff1681526020019081526020016000206000848152602001908152602001600020819055506001600083815260200190815260200160002060010160009054906101000a900473ffffffffffffffffffffffffffffffffffffffff1673ffffffffffffffffffffffffffffffffffffffff1663a9059cbb33856040518363ffffffff1660e01b81526004016109e69291906114fa565b602060405180830381600087803b158015610a0057600080fd5b505af1158015610a14573d6000803e3d6000fd5b505050506040513d601f19601f82011682018060405250810190610a38919061113a565b50505050565b60006001811115610a78577f4e487b7100000000000000000000000000000000000000000000000000000000600052602160045260246000fd5b836001811115610ab1577f4e487b7100000000000000000000000000000000000000000000000000000000600052602160045260246000fd5b1415610b4757610aca818361105690919063ffffffff16565b600360003373ffffffffffffffffffffffffffffffffffffffff1673ffffffffffffffffffffffffffffffffffffffff16815260200190815260200160002060007f45544800000000000000000000000000000000000000000000000000000000008152602001908152602001600020541015610b4657600080fd5b5b505050565b6060600460008481526020019081526020016000206000836001811115610b9c577f4e487b7100000000000000000000000000000000000000000000000000000000600052602160045260246000fd5b8152602001908152602001600020805480602002602001604051908101604052809291908181526020016000905b82821015610c7a57838290600052602060002090600502016040518060a0016040529081600082015481526020016001820160009054906101000a900473ffffffffffffffffffffffffffffffffffffffff1673ffffffffffffffffffffffffffffffffffffffff1673ffffffffffffffffffffffffffffffffffffffff168152602001600282015481526020016003820154815260200160048201548152505081526020019060010190610bca565b50505050905092915050565b80600073ffffffffffffffffffffffffffffffffffffffff166001600083815260200190815260200160002060010160009054906101000a900473ffffffffffffffffffffffffffffffffffffffff1673ffffffffffffffffffffffffffffffffffffffff161415610cf757600080fd5b6001600083815260200190815260200160002060010160009054906101000a900473ffffffffffffffffffffffffffffffffffffffff1673ffffffffffffffffffffffffffffffffffffffff166323b872dd3330866040518463ffffffff1660e01b8152600401610d6a939291906114c3565b602060405180830381600087803b158015610d8457600080fd5b505af1158015610d98573d6000803e3d6000fd5b505050506040513d601f19601f82011682018060405250810190610dbc919061113a565b50610e2083600360003373ffffffffffffffffffffffffffffffffffffffff1673ffffffffffffffffffffffffffffffffffffffff16815260200190815260200160002060008581526020019081526020016000205461102290919063ffffffff16565b600360003373ffffffffffffffffffffffffffffffffffffffff1673ffffffffffffffffffffffffffffffffffffffff168152602001908152602001600020600084815260200190815260200160002081905550505050565b610e81611038565b73ffffffffffffffffffffffffffffffffffffffff16610e9f610632565b73ffffffffffffffffffffffffffffffffffffffff1614610ef5576040517f08c379a0000000000000000000000000000000000000000000000000000000008152600401610eec906115a9565b60405180910390fd5b600073ffffffffffffffffffffffffffffffffffffffff168173ffffffffffffffffffffffffffffffffffffffff161415610f65576040517f08c379a0000000000000000000000000000000000000000000000000000000008152600401610f5c90611589565b60405180910390fd5b8073ffffffffffffffffffffffffffffffffffffffff1660008054906101000a900473ffffffffffffffffffffffffffffffffffffffff1673ffffffffffffffffffffffffffffffffffffffff167f8be0079c531659141344cd1fd0a4f28419497f9722a3daafe3b4186f6b6457e060405160405180910390a3806000806101000a81548173ffffffffffffffffffffffffffffffffffffffff021916908373ffffffffffffffffffffffffffffffffffffffff16021790555050565b6000818361103091906116a1565b905092915050565b600033905090565b6000818361104e9190611751565b905092915050565b6000818361106491906116f7565b905092915050565b60008135905061107b816118a7565b92915050565b600081519050611090816118be565b92915050565b6000813590506110a5816118d5565b92915050565b6000813590506110ba816118ec565b92915050565b6000813590506110cf816118fc565b92915050565b6000602082840312156110e757600080fd5b60006110f58482850161106c565b91505092915050565b6000806040838503121561111157600080fd5b600061111f8582860161106c565b925050602061113085828601611096565b9150509250929050565b60006020828403121561114c57600080fd5b600061115a84828501611081565b91505092915050565b60006020828403121561117557600080fd5b600061118384828501611096565b91505092915050565b6000806040838503121561119f57600080fd5b60006111ad85828601611096565b92505060206111be8582860161106c565b9150509250929050565b600080604083850312156111db57600080fd5b60006111e985828601611096565b92505060206111fa858286016110ab565b9150509250929050565b60008060006060848603121561121957600080fd5b600061122786828701611096565b9350506020611238868287016110c0565b9250506040611249868287016110c0565b9150509250925092565b60008060006060848603121561126857600080fd5b6000611276868287016110ab565b9350506020611287868287016110c0565b9250506040611298868287016110c0565b9150509250925092565b6000602082840312156112b457600080fd5b60006112c2848285016110c0565b91505092915050565b600080604083850312156112de57600080fd5b60006112ec858286016110c0565b92505060206112fd85828601611096565b9150509250929050565b60006113138383611422565b60a08301905092915050565b61132881611785565b82525050565b61133781611785565b82525050565b600061134882611667565b611352818561167f565b935061135d83611657565b8060005b8381101561138e5781516113758882611307565b975061138083611672565b925050600181019050611361565b5085935050505092915050565b6113a4816117a3565b82525050565b6113b3816117a3565b82525050565b60006113c6602683611690565b91506113d182611806565b604082019050919050565b60006113e9602083611690565b91506113f482611855565b602082019050919050565b600061140c601683611690565b91506114178261187e565b602082019050919050565b60a082016000820151611438600085018261148a565b50602082015161144b602085018261131f565b50604082015161145e604085018261139b565b506060820151611471606085018261148a565b506080820151611484608085018261148a565b50505050565b611493816117cd565b82525050565b6114a2816117cd565b82525050565b60006020820190506114bd600083018461132e565b92915050565b60006060820190506114d8600083018661132e565b6114e5602083018561132e565b6114f26040830184611499565b949350505050565b600060408201905061150f600083018561132e565b61151c6020830184611499565b9392505050565b6000602082019050818103600083015261153d818461133d565b905092915050565b600060208201905061155a60008301846113aa565b92915050565b600060408201905061157560008301856113aa565b611582602083018461132e565b9392505050565b600060208201905081810360008301526115a2816113b9565b9050919050565b600060208201905081810360008301526115c2816113dc565b9050919050565b600060208201905081810360008301526115e2816113ff565b9050919050565b60006020820190506115fe6000830184611499565b92915050565b600060a0820190506116196000830188611499565b611626602083018761132e565b61163360408301866113aa565b6116406060830185611499565b61164d6080830184611499565b9695505050505050565b6000819050602082019050919050565b600081519050919050565b6000602082019050919050565b600082825260208201905092915050565b600082825260208201905092915050565b60006116ac826117cd565b91506116b7836117cd565b9250827fffffffffffffffffffffffffffffffffffffffffffffffffffffffffffffffff038211156116ec576116eb6117d7565b5b828201905092915050565b6000611702826117cd565b915061170d836117cd565b9250817fffffffffffffffffffffffffffffffffffffffffffffffffffffffffffffffff0483118215151615611746576117456117d7565b5b828202905092915050565b600061175c826117cd565b9150611767836117cd565b92508282101561177a576117796117d7565b5b828203905092915050565b6000611790826117ad565b9050919050565b60008115159050919050565b6000819050919050565b600073ffffffffffffffffffffffffffffffffffffffff82169050919050565b6000819050919050565b7f4e487b7100000000000000000000000000000000000000000000000000000000600052601160045260246000fd5b7f4f776e61626c653a206e6577206f776e657220697320746865207a65726f206160008201527f6464726573730000000000000000000000000000000000000000000000000000602082015250565b7f4f776e61626c653a2063616c6c6572206973206e6f7420746865206f776e6572600082015250565b7f42616c616e6365206e6f742073756666696369656e7400000000000000000000600082015250565b6118b081611785565b81146118bb57600080fd5b50565b6118c781611797565b81146118d257600080fd5b50565b6118de816117a3565b81146118e957600080fd5b50565b600281106118f957600080fd5b50565b611905816117cd565b811461191057600080fd5b5056fea2646970667358221220006bb0b3dc167539789e8d60da868bdb91ad6260ff83ddf3ea4af6222f41214664736f6c63430008040033",
  "immutableReferences": {},
  "source": "//SPDX-License-Identifier: MIT\npragma solidity ^0.8.0;\npragma experimental ABIEncoderV2;\n\nimport \"./wallet.sol\";\n\n\ncontract Dex is Wallet {\n\n    using SafeMath for uint256;\n\n    enum Side {\n        BUY,\n        SELL\n    }\n\n    struct Order {\n        uint id;\n        address trader;\n        bytes32 ticker;\n        uint amount;\n        uint price;\n    }\n\n    mapping(bytes32 => mapping(uint => Order[])) public orderBook;\n\n    function getOrderBook(bytes32 ticker, Side side) view public returns (Order[] memory){\n        return orderBook[ticker][uint(side)];\n\n        }\n\n    function createLimitOrder(Side side,uint amount,uint price) view public {\n        if (side == Side.BUY){\n            require(balances[msg.sender][\"ETH\"] >= amount.mul(price));\n        }\n    }\n}\n\n\n\n\n",
  "sourcePath": "/Users/jakegoode/Desktop/Ethereum-201/DEX/contracts/dex.sol",
  "compiler": {
    "name": "solc",
    "version": "0.8.4+commit.c7e474f2.Emscripten.clang"
  },
  "schemaVersion": "3.3.4",
  "updatedAt": "2021-04-22T20:18:23.062Z",
  "networkType": "ethereum",
  "devdoc": {
    "kind": "dev",
    "methods": {
      "owner()": {
        "details": "Returns the address of the current owner."
      },
      "renounceOwnership()": {
        "details": "Leaves the contract without owner. It will not be possible to call `onlyOwner` functions anymore. Can only be called by the current owner. NOTE: Renouncing ownership will leave the contract without an owner, thereby removing any functionality that is only available to the owner."
      },
      "transferOwnership(address)": {
        "details": "Transfers ownership of the contract to a new account (`newOwner`). Can only be called by the current owner."
      }
    },
    "version": 1
  },
  "userdoc": {
    "kind": "user",
    "methods": {},
    "version": 1
  }
}