{
  "contractName": "Wallet",
  "abi": [
    {
      "anonymous": false,
      "inputs": [
        {
          "indexed": true,
          "internalType": "address",
          "name": "previousOwner",
          "type": "address"
        },
        {
          "indexed": true,
          "internalType": "address",
          "name": "newOwner",
          "type": "address"
        }
      ],
      "name": "OwnershipTransferred",
      "type": "event"
    },
    {
      "inputs": [
        {
          "internalType": "address",
          "name": "",
          "type": "address"
        },
        {
          "internalType": "bytes32",
          "name": "",
          "type": "bytes32"
        }
      ],
      "name": "balances",
      "outputs": [
        {
          "internalType": "uint256",
          "name": "",
          "type": "uint256"
        }
      ],
      "stateMutability": "view",
      "type": "function"
    },
    {
      "inputs": [],
      "name": "owner",
      "outputs": [
        {
          "internalType": "address",
          "name": "",
          "type": "address"
        }
      ],
      "stateMutability": "view",
      "type": "function"
    },
    {
      "inputs": [],
      "name": "renounceOwnership",
      "outputs": [],
      "stateMutability": "nonpayable",
      "type": "function"
    },
    {
      "inputs": [
        {
          "internalType": "uint256",
          "name": "",
          "type": "uint256"
        }
      ],
      "name": "tokenList",
      "outputs": [
        {
          "internalType": "bytes32",
          "name": "",
          "type": "bytes32"
        }
      ],
      "stateMutability": "view",
      "type": "function"
    },
    {
      "inputs": [
        {
          "internalType": "bytes32",
          "name": "",
          "type": "bytes32"
        }
      ],
      "name": "tokenMapping",
      "outputs": [
        {
          "internalType": "bytes32",
          "name": "ticker",
          "type": "bytes32"
        },
        {
          "internalType": "address",
          "name": "tokenAddress",
          "type": "address"
        }
      ],
      "stateMutability": "view",
      "type": "function"
    },
    {
      "inputs": [
        {
          "internalType": "address",
          "name": "newOwner",
          "type": "address"
        }
      ],
      "name": "transferOwnership",
      "outputs": [],
      "stateMutability": "nonpayable",
      "type": "function"
    },
    {
      "inputs": [
        {
          "internalType": "bytes32",
          "name": "ticker",
          "type": "bytes32"
        },
        {
          "internalType": "address",
          "name": "tokenAddress",
          "type": "address"
        }
      ],
      "name": "addToken",
      "outputs": [],
      "stateMutability": "nonpayable",
      "type": "function"
    },
    {
      "inputs": [
        {
          "internalType": "uint256",
          "name": "amount",
          "type": "uint256"
        },
        {
          "internalType": "bytes32",
          "name": "ticker",
          "type": "bytes32"
        }
      ],
      "name": "deposit",
      "outputs": [],
      "stateMutability": "nonpayable",
      "type": "function"
    },
    {
      "inputs": [
        {
          "internalType": "uint256",
          "name": "amount",
          "type": "uint256"
        },
        {
          "internalType": "bytes32",
          "name": "ticker",
          "type": "bytes32"
        }
      ],
      "name": "withdraw",
      "outputs": [],
      "stateMutability": "nonpayable",
      "type": "function"
    }
  ],
  "bytecode": "0x608060405234801561001057600080fd5b5060006100216100c460201b60201c565b9050806000806101000a81548173ffffffffffffffffffffffffffffffffffffffff021916908373ffffffffffffffffffffffffffffffffffffffff1602179055508073ffffffffffffffffffffffffffffffffffffffff16600073ffffffffffffffffffffffffffffffffffffffff167f8be0079c531659141344cd1fd0a4f28419497f9722a3daafe3b4186f6b6457e060405160405180910390a3506100cc565b600033905090565b611264806100db6000396000f3fe608060405234801561001057600080fd5b50600436106100935760003560e01c80639776aacf116100665780639776aacf146101215780639ead72221461013d578063a8d2021a1461016d578063c9630cb014610189578063f2fde38b146101a557610093565b80631f14df6914610098578063667cb4ba146100c8578063715018a6146100f95780638da5cb5b14610103575b600080fd5b6100b260048036038101906100ad9190610caa565b6101c1565b6040516100bf9190610fd1565b60405180910390f35b6100e260048036038101906100dd9190610d0f565b6101e6565b6040516100f0929190610f28565b60405180910390f35b61010161022a565b005b61010b610364565b6040516101189190610e92565b60405180910390f35b61013b60048036038101906101369190610d38565b61038d565b005b61015760048036038101906101529190610d74565b6104c8565b6040516101649190610f0d565b60405180910390f35b61018760048036038101906101829190610d9d565b6104ec565b005b6101a3600480360381019061019e9190610d9d565b610770565b005b6101bf60048036038101906101ba9190610c81565b610a50565b005b6003602052816000526040600020602052806000526040600020600091509150505481565b60016020528060005260406000206000915090508060000154908060010160009054906101000a900473ffffffffffffffffffffffffffffffffffffffff16905082565b610232610bf9565b73ffffffffffffffffffffffffffffffffffffffff16610250610364565b73ffffffffffffffffffffffffffffffffffffffff16146102a6576040517f08c379a000000000000000000000000000000000000000000000000000000000815260040161029d90610f71565b60405180910390fd5b600073ffffffffffffffffffffffffffffffffffffffff1660008054906101000a900473ffffffffffffffffffffffffffffffffffffffff1673ffffffffffffffffffffffffffffffffffffffff167f8be0079c531659141344cd1fd0a4f28419497f9722a3daafe3b4186f6b6457e060405160405180910390a360008060006101000a81548173ffffffffffffffffffffffffffffffffffffffff021916908373ffffffffffffffffffffffffffffffffffffffff160217905550565b60008060009054906101000a900473ffffffffffffffffffffffffffffffffffffffff16905090565b610395610bf9565b73ffffffffffffffffffffffffffffffffffffffff166103b3610364565b73ffffffffffffffffffffffffffffffffffffffff1614610409576040517f08c379a000000000000000000000000000000000000000000000000000000000815260040161040090610f71565b60405180910390fd5b60405180604001604052808381526020018273ffffffffffffffffffffffffffffffffffffffff16815250600160008481526020019081526020016000206000820151816000015560208201518160010160006101000a81548173ffffffffffffffffffffffffffffffffffffffff021916908373ffffffffffffffffffffffffffffffffffffffff16021790555090505060028290806001815401808255809150506001900390600052602060002001600090919091909150555050565b600281815481106104d857600080fd5b906000526020600020016000915090505481565b80600073ffffffffffffffffffffffffffffffffffffffff166001600083815260200190815260200160002060010160009054906101000a900473ffffffffffffffffffffffffffffffffffffffff1673ffffffffffffffffffffffffffffffffffffffff16141561055d57600080fd5b82600360003373ffffffffffffffffffffffffffffffffffffffff1673ffffffffffffffffffffffffffffffffffffffff16815260200190815260200160002060008481526020019081526020016000205410156105f0576040517f08c379a00000000000000000000000000000000000000000000000000000000081526004016105e790610fb1565b60405180910390fd5b6001600083815260200190815260200160002060010160009054906101000a900473ffffffffffffffffffffffffffffffffffffffff1673ffffffffffffffffffffffffffffffffffffffff1663a9059cbb33856040518363ffffffff1660e01b8152600401610661929190610ee4565b602060405180830381600087803b15801561067b57600080fd5b505af115801561068f573d6000803e3d6000fd5b505050506040513d601f19601f820116820180604052508101906106b39190610ce6565b5061071783600360003373ffffffffffffffffffffffffffffffffffffffff1673ffffffffffffffffffffffffffffffffffffffff168152602001908152602001600020600085815260200190815260200160002054610c0190919063ffffffff16565b600360003373ffffffffffffffffffffffffffffffffffffffff1673ffffffffffffffffffffffffffffffffffffffff168152602001908152602001600020600084815260200190815260200160002081905550505050565b80600073ffffffffffffffffffffffffffffffffffffffff166001600083815260200190815260200160002060010160009054906101000a900473ffffffffffffffffffffffffffffffffffffffff1673ffffffffffffffffffffffffffffffffffffffff1614156107e157600080fd5b600360003373ffffffffffffffffffffffffffffffffffffffff1673ffffffffffffffffffffffffffffffffffffffff16815260200190815260200160002060008381526020019081526020016000205483600360003373ffffffffffffffffffffffffffffffffffffffff1673ffffffffffffffffffffffffffffffffffffffff16815260200190815260200160002060008581526020019081526020016000205461088e9190610ffd565b116108ce576040517f08c379a00000000000000000000000000000000000000000000000000000000081526004016108c590610f91565b60405180910390fd5b6001600083815260200190815260200160002060010160009054906101000a900473ffffffffffffffffffffffffffffffffffffffff1673ffffffffffffffffffffffffffffffffffffffff166323b872dd3330866040518463ffffffff1660e01b815260040161094193929190610ead565b602060405180830381600087803b15801561095b57600080fd5b505af115801561096f573d6000803e3d6000fd5b505050506040513d601f19601f820116820180604052508101906109939190610ce6565b506109f783600360003373ffffffffffffffffffffffffffffffffffffffff1673ffffffffffffffffffffffffffffffffffffffff168152602001908152602001600020600085815260200190815260200160002054610c1790919063ffffffff16565b600360003373ffffffffffffffffffffffffffffffffffffffff1673ffffffffffffffffffffffffffffffffffffffff168152602001908152602001600020600084815260200190815260200160002081905550505050565b610a58610bf9565b73ffffffffffffffffffffffffffffffffffffffff16610a76610364565b73ffffffffffffffffffffffffffffffffffffffff1614610acc576040517f08c379a0000000000000000000000000000000000000000000000000000000008152600401610ac390610f71565b60405180910390fd5b600073ffffffffffffffffffffffffffffffffffffffff168173ffffffffffffffffffffffffffffffffffffffff161415610b3c576040517f08c379a0000000000000000000000000000000000000000000000000000000008152600401610b3390610f51565b60405180910390fd5b8073ffffffffffffffffffffffffffffffffffffffff1660008054906101000a900473ffffffffffffffffffffffffffffffffffffffff1673ffffffffffffffffffffffffffffffffffffffff167f8be0079c531659141344cd1fd0a4f28419497f9722a3daafe3b4186f6b6457e060405160405180910390a3806000806101000a81548173ffffffffffffffffffffffffffffffffffffffff021916908373ffffffffffffffffffffffffffffffffffffffff16021790555050565b600033905090565b60008183610c0f9190611053565b905092915050565b60008183610c259190610ffd565b905092915050565b600081359050610c3c816111d2565b92915050565b600081519050610c51816111e9565b92915050565b600081359050610c6681611200565b92915050565b600081359050610c7b81611217565b92915050565b600060208284031215610c9357600080fd5b6000610ca184828501610c2d565b91505092915050565b60008060408385031215610cbd57600080fd5b6000610ccb85828601610c2d565b9250506020610cdc85828601610c57565b9150509250929050565b600060208284031215610cf857600080fd5b6000610d0684828501610c42565b91505092915050565b600060208284031215610d2157600080fd5b6000610d2f84828501610c57565b91505092915050565b60008060408385031215610d4b57600080fd5b6000610d5985828601610c57565b9250506020610d6a85828601610c2d565b9150509250929050565b600060208284031215610d8657600080fd5b6000610d9484828501610c6c565b91505092915050565b60008060408385031215610db057600080fd5b6000610dbe85828601610c6c565b9250506020610dcf85828601610c57565b9150509250929050565b610de281611087565b82525050565b610df1816110a5565b82525050565b6000610e04602683610fec565b9150610e0f82611108565b604082019050919050565b6000610e27602083610fec565b9150610e3282611157565b602082019050919050565b6000610e4a600583610fec565b9150610e5582611180565b602082019050919050565b6000610e6d601683610fec565b9150610e78826111a9565b602082019050919050565b610e8c816110cf565b82525050565b6000602082019050610ea76000830184610dd9565b92915050565b6000606082019050610ec26000830186610dd9565b610ecf6020830185610dd9565b610edc6040830184610e83565b949350505050565b6000604082019050610ef96000830185610dd9565b610f066020830184610e83565b9392505050565b6000602082019050610f226000830184610de8565b92915050565b6000604082019050610f3d6000830185610de8565b610f4a6020830184610dd9565b9392505050565b60006020820190508181036000830152610f6a81610df7565b9050919050565b60006020820190508181036000830152610f8a81610e1a565b9050919050565b60006020820190508181036000830152610faa81610e3d565b9050919050565b60006020820190508181036000830152610fca81610e60565b9050919050565b6000602082019050610fe66000830184610e83565b92915050565b600082825260208201905092915050565b6000611008826110cf565b9150611013836110cf565b9250827fffffffffffffffffffffffffffffffffffffffffffffffffffffffffffffffff03821115611048576110476110d9565b5b828201905092915050565b600061105e826110cf565b9150611069836110cf565b92508282101561107c5761107b6110d9565b5b828203905092915050565b6000611092826110af565b9050919050565b60008115159050919050565b6000819050919050565b600073ffffffffffffffffffffffffffffffffffffffff82169050919050565b6000819050919050565b7f4e487b7100000000000000000000000000000000000000000000000000000000600052601160045260246000fd5b7f4f776e61626c653a206e6577206f776e657220697320746865207a65726f206160008201527f6464726573730000000000000000000000000000000000000000000000000000602082015250565b7f4f776e61626c653a2063616c6c6572206973206e6f7420746865206f776e6572600082015250565b7f6973737565000000000000000000000000000000000000000000000000000000600082015250565b7f42616c616e6365206e6f742073756666696369656e7400000000000000000000600082015250565b6111db81611087565b81146111e657600080fd5b50565b6111f281611099565b81146111fd57600080fd5b50565b611209816110a5565b811461121457600080fd5b50565b611220816110cf565b811461122b57600080fd5b5056fea26469706673582212200d97bb674bdd9c21634e0f63ae1a32c17bc69be7dc08121fbfab362adb7a21c364736f6c63430008040033",
  "immutableReferences": {},
  "source": "//SPDX-License-Identifier: MIT\npragma solidity ^0.8.0;\n\nimport \"../node_modules/@openzeppelin/contracts/token/ERC20/IERC20.sol\";\nimport \"../node_modules/@openzeppelin/contracts/utils/math/SafeMath.sol\";\nimport \"../node_modules/@openzeppelin/contracts/access/Ownable.sol\";\n\n\ncontract Wallet is Ownable {\n\n    using SafeMath for uint256;\n\n    struct Token {\n        bytes32 ticker;\n        address tokenAddress;\n    }\n    mapping(bytes32 => Token) public tokenMapping;\n    bytes32[] public tokenList;\n\n\n    mapping(address => mapping(bytes32 => uint256)) public balances;\n\n    modifier tokenExist(bytes32 ticker){\n    require (tokenMapping[ticker].tokenAddress != address(0));\n    _;\n    }\n\n    function addToken(bytes32 ticker, address tokenAddress) onlyOwner external {\n        tokenMapping[ticker] = Token(ticker, tokenAddress);\n        tokenList.push(ticker);\n    }\n\n    function deposit(uint amount, bytes32 ticker) tokenExist(ticker) external { \n        require(balances[msg.sender][ticker] + amount > balances [msg.sender][ticker],\"issue\");\n               \n        IERC20(tokenMapping[ticker].tokenAddress).transferFrom(msg.sender,address(this), amount);\n        balances[msg.sender][ticker] = balances[msg.sender][ticker].add(amount);\n\n    }\n\n    function withdraw(uint amount, bytes32 ticker) tokenExist(ticker) external {\n        require (balances[msg.sender][ticker] >= amount, \"Balance not sufficient\");\n\n        IERC20(tokenMapping[ticker].tokenAddress).transfer(msg.sender,amount);\n        balances[msg.sender] [ticker] = balances[msg.sender] [ticker].sub(amount);\n    \n    }\n    \n}",
  "sourcePath": "/Users/jakegoode/Desktop/Ethereum-201/DEX/contracts/wallet.sol",
  "compiler": {
    "name": "solc",
    "version": "0.8.4+commit.c7e474f2.Emscripten.clang"
  },
  "schemaVersion": "3.3.4",
  "updatedAt": "2021-04-23T15:18:04.088Z",
  "devdoc": {
    "kind": "dev",
    "methods": {
      "owner()": {
        "details": "Returns the address of the current owner."
      },
      "renounceOwnership()": {
        "details": "Leaves the contract without owner. It will not be possible to call `onlyOwner` functions anymore. Can only be called by the current owner. NOTE: Renouncing ownership will leave the contract without an owner, thereby removing any functionality that is only available to the owner."
      },
      "transferOwnership(address)": {
        "details": "Transfers ownership of the contract to a new account (`newOwner`). Can only be called by the current owner."
      }
    },
    "version": 1
  },
  "userdoc": {
    "kind": "user",
    "methods": {},
    "version": 1
  }
}